:020000040800F2
:10000000A005002005010008391500085F0D000853
:100010003515000895080008F32E000800000000C0
:10002000000000000000000000000000A125000802
:10003000B5090008000000001D1E00085D2700082B
:100040001F0100081F0100081F0100081F01000810
:100050001F0100081F0100081F0100081F01000800
:100060001F0100081F0100081F0100081F010008F0
:100070001F0100081F0100081F0100081F010008E0
:100080001F0100081F0100081F0100081F010008D0
:100090001F0100081F0100081F0100081F010008C0
:1000A0001F0100081F0100081F0100081F010008B0
:1000B000C127000819280008792900081F01000835
:1000C0001F0100081F0100081F0100081F01000890
:1000D0001F010008992C00081F0100081F010008DB
:1000E000E50A00081F0100081F010008DFF810D012
:1000F00000F036FB00480047B5390008AFF3008038
:10010000A00500200648804706480047FEE7FEE7B6
:10011000FEE7FEE7FEE7FEE7FEE7FEE7FEE7FEE7B7
:1001200061270008ED000008D2B201E000F8012BC1
:10013000491EFBD270470022F6E710B513460A4667
:1001400004461946FFF7F0FF204610BD30B50546BE
:100150002A460B4612F8010B13F8014B08B1A042D6
:10016000F8D01CB1002802D06D1CF1E7284630BD44
:100170002DE9FE4F81EA030404F0004421F0004120
:1001800000944FF0000B23F0004350EA01045ED0CE
:1001900052EA03045BD0C3F30A54C1F30A552C445A
:1001A000A4F2F3340194A0FB0254C1F3130141F40F
:1001B0008011C3F3130343F4801301FB024400FBDB
:1001C000034E840A970A44EA815447EA8357A4FB02
:1001D000076802958D0A05FB07854FEA932C04FBFF
:1001E0000C542705029D4FEA065847EA1637B5EB2F
:1001F00008056EEB070C870E920E47EA811742EA5C
:100200008312A7FB0201B6EB0B0164EB00042B0D7C
:1002100043EA0C335E1844EB1C50DA465146E7FBC8
:100220000201C5F313044FEA0B3343EA14534FEAB8
:100230000432019C43EA0603A4F10C040294009CDE
:10024000CDE900B400F0F8F803B0BDE8F08F00206D
:100250000146F9E796230022114600F0B0B80EB52A
:1002600040F2334102910021CDE900110A460B46CC
:1002700000F0E2F803B000BD20F00040C10DC0F373
:10028000160040F400007F2901DA0020704796290B
:1002900003DCC1F19601C840704796398840704729
:1002A00000F0004230F000400AD0C10D01F560714D
:1002B000C0F3160042EA0151C208400711437047DB
:1002C00000200146704701F0004330B421F00041A6
:1002D00050EA010206D00A0DA2F56072C1F31301C3
:1002E000002A02DC30BC00207047440F44EAC104FD
:1002F000C100E01830BC00EBC25000F057B830B578
:100300000B46014600202022012409E021FA02F5D3
:100310009D4205D303FA02F5491B04FA02F528446D
:10032000151EA2F10102F1DC30BD2DE9F05F05469A
:10033000002092469B4688460646814640241BE0A4
:10034000284641464746224600F020F853465A4682
:10035000C01A914110D311461846224600F012FAF5
:100360002D1A67EB01084F4622460120002100F0BC
:1003700009FA17EB00094E41201EA4F10104DFDC4D
:10038000484631462A464346BDE8F09F202A04DB12
:10039000203A21FA02F00021704721FA02F3D040FE
:1003A000C2F1200291400843194670470029A8BFB6
:1003B0007047401C490008BF20F00100704710B48E
:1003C000B0FA80FC00FA0CF050EA010404BF10BC43
:1003D000704749B1CCF1200421FA04F411FA0CF170
:1003E00018BF012121430843A3EB0C01CB1D4FEAA9
:1003F00000614FEA102042BF002010BC704700EBA4
:10040000C35010440029A4BF10BC7047401C4900D1
:1004100008BF20F0010010BC704710B5141E73F126
:10042000000408DA401C41F1000192185B411A43B4
:1004300001D120F0010010BD2DE9F04D92469B4600
:1004400011B1B1FA81F202E0B0FA80F220329046A6
:1004500000F098F904460F4640EA0A0041EA0B0111
:1004600053465A46084313D0114653EA010019D0A7
:10047000C8F140025046FFF789FF05460E46504638
:100480005946424600F07EF9084305D0012004E0B9
:1004900020463946BDE8F08D0020054346EAE07667
:1004A0002C4337430A986305E40AA0EB08000022B6
:1004B000FD0A44EA47540A3002D500200146E9E724
:1004C000010510196941DDE9084500196941BDE8D8
:1004D000F04DA2E72DE9FE4F804681EA0300C00FF0
:1004E0000C46009021F0004123F00045B8EB0200DB
:1004F000A94105D24046214690461C460B4602467D
:1005000023F00040104347D0270DC7F30A00C3F380
:100510000A510290401A019040286BDAC3F313008D
:1005200040F4801B0098924620B10023D2EB030ACE
:1005300063EB0B0B01985946C0F14002504600F0A6
:1005400021F906460D4650465946019A00F029F910
:1005500010EB08006141002487EA115284EAE77336
:100560001A4340D0009A62B3019A012A4FEA075217
:1005700015DC001B61EB02014FF0004202EA07525A
:10058000CDE90042001C41F5801132462B46FFF7B1
:1005900053FF03B0BDE8F08F40462146F9E7001B4A
:1005A00061EB0201001C41F5801300185B4120182B
:1005B000A2F5001747EB030140EAD570B6196D416B
:1005C00011E06D084FEA360645EAC0754FEA07525A
:1005D000001B61EB0201001C41F5801149084FEA44
:1005E00030000019514132462B4603B0BDE8F04FB0
:1005F000FFF713BF0098012240000023D0EB020256
:1006000063EBE073009821464FEAE074B8EB00001A
:1006100061EB0401E9E783F000435BE781F000410F
:1006200058E72DE9F04D81EA030404F0004B21F076
:10063000004514464FF0000A23F0004150EA05023D
:1006400020D054EA01021DD0C5F30A570246C5F373
:100650001303C1F31300C1F30A5640F4801543F4A9
:100660008013A7EB0608101BD64608F2FD3873EB83
:10067000050002D308F1010801E092185B41B8F1CE
:10068000000F03DA00200146BDE8F08D00204FF492
:100690008011064684460EE0171B73EB050705D351
:1006A000121B63EB050306434CEA010C49084FEAB1
:1006B000300092185B4150EA0107EDD152EA030085
:1006C00012D082EA040083EA0501084305D0101B1A
:1006D000AB4106D20122002306E000224FF0004386
:1006E00002E06FF0010253101AEB06004CEB0851C8
:1006F00010EB0A0041EB0B01BDE8F04DFFF78DBE9A
:10070000C1F30A52C1F3130140F2FF3341F48011E7
:100710009A4202DA00200146704740F233439A427F
:10072000A2F2334202DC5242FFF730BE00F02AB898
:1007300030B5041E71F1000404DB4FF00044404268
:1007400064EB0101141E73F1000405DB1C464FF03D
:100750000043524263EB0403994208BF904230BD0C
:10076000064C074D06E0E06840F0010394E80700FE
:1007700098471034AC42F6D3FFF7BCFC0C5B000882
:100780002C5B0008202A04DB203A00FA02F100204A
:1007900070479140C2F1200320FA03F319439040BF
:1007A0007047202A06DBCB17203A41FA02F043EAD1
:1007B000E07306E041FA02F3D040C2F1200291401A
:1007C00008431946704710B500F02CF8642000F07B
:1007D000F2F800F01FF810BD10B500F023F8642007
:1007E00000F0E9F800F016F8642000F0E4F800F0FA
:1007F00019F8642000F0DFF800F00CF8642000F035
:10080000DAF800F00FF8642000F0D5F800F002F8F4
:1008100010BD000010B50121014800F097FA10BD8D
:100820000008014010B50121014800F091FA10BD07
:100830000008014010B5FFF7F5FF10BD10B5FFF738
:10084000F1FF642000F0B7F8FFF7E4FF10BD10B52A
:10085000FFF7E8FFC82000F0AEF8FFF7DBFF10BDA0
:1008600008B50121042001F0FBFA10208DF80300E7
:100870000120ADF8000003208DF80200694604480D
:1008800000F0D0F90121024800F062FA08BD000032
:100890000008014000BFFEE770B53348007801282A
:1008A00061D1322000F087F830490878FFF7D2FC98
:1008B000044622462EA1002000F0F6F8322000F077
:1008C0007AF82A494878FFF7C5FC044622462AA14F
:1008D000002000F0E9F8322000F06DF82349887814
:1008E000FFF7B8FC0446224625A1002000F0DCF802
:1008F000322000F060F824490868FFF7ABFC04469A
:10090000224622A1002000F0CFF8322000F053F858
:100910001D494868FFF79EFC044622461DA10020A1
:1009200000F0C2F8322000F046F817498868FFF757
:1009300091FC0446224619A1002000F0B5F83220AF
:1009400000F039F8174800680A21B0FBF1F5284695
:10095000FFF780FC0446224613A1002000F0A4F813
:1009600000200149087070BD1800002068000020B8
:100970004761726765310000476172676532000048
:1009800047617267653300008C01002054696D6512
:100990003100000054696D653200000054696D65D6
:1009A000330000001400002044697374616E6365B5
:1009B00000000000704700B5034603E04FF47A7072
:1009C00000F005F8181EA3F10103F7D100BD00EBFC
:1009D000C001C9004FF0E022516100219161052161
:1009E000116100BF4FF0E021096901F48031002955
:1009F000F8D004214FF0E0221161704710B501F0EA
:100A0000D1FD0AE017A11A48FFF7A0FB28B14FF467
:100A1000FA711748FFF78FFB00E0F3E700BF4FF4D0
:100A2000FA60FFF7C8FF4FF4FA711148FFF783FB34
:100A300010A002F047FB4FF4FA60FFF7BCFF4FF441
:100A4000FA710B48FFF777FB0E4803680E480268FF
:100A50000E4801680EA002F035FB4FF4FA60FFF774
:100A6000AAFF10BD5749464920474F54204950001E
:100A70009000002041542B494F5453544154555336
:100A80000D0A0000780000206C0000207400002097
:100A900041542B494F544346473D25732C25732C15
:100AA00025730D0A000000002DE9FC4104460D46A7
:100AB00090464046FFF7F4FB2A46CDE90001214667
:100AC00002A002F0FFFABDE8FC81000041542B496E
:100AD0004F5453454E443D25642C25732C252E310F
:100AE000660D0A0010B54FF4805000F01DF8012883
:100AF00004D108490870000300F010F84FF40050CA
:100B000000F012F8012804D103490870400300F0F6
:100B100005F810BD190000201A00002001490860E6
:100B20007047000014040140014600200022074BDA
:100B30001B6803EA0102054B14331B680B4013B119
:100B40000AB1012000E000207047000000040140CD
:100B5000002123498279002A3AD00A4612680368A4
:100B60009A430B461A600A1D126803689A430B1DCC
:100B70001A60027911440A6803681A430A60184A25
:100B80000832126803689A43154B08331A601A1D1D
:100B9000126803689A43124B0C331A604279102A88
:100BA0000ED11A1F126803681A430D4B08331A60DE
:100BB0001A1D126803681A43094B0C331A600DE0C2
:100BC0000749427911440A6803681A430A6005E03C
:100BD000027911440A6803689A430A60704700006A
:100BE0000004014030B500228B071C0F0F2303FACD
:100BF00004F20B4B8C1053F824309343084C8D10A7
:100C000044F8253023468C1053F824308C07240FE9
:100C100000FA04F42343024C8D1044F8253030BD13
:100C2000080001402DE9F041024600250026002081
:100C300000230024002791F803C00CF00F0591F861
:100C400003C00CF0100CBCF1000F03D091F802C0EF
:100C50004CEA050591F800C0BCF1000F31D01468D2
:100C600000202BE04FF0010C0CFA00F3B1F800C0AB
:100C70000CEA03069E4220D183004FF00F0C0CFAC1
:100C800003F7BC4305FA03FC4CEA040491F803C0E3
:100C9000BCF1280F06D14FF0010C0CFA00FCC2F891
:100CA00014C00AE091F803C0BCF1480F05D14FF021
:100CB000010C0CFA00FCC2F810C0401C0828D1D36B
:100CC0001460B1F800C0BCF1FF0F34DD546800209F
:100CD0002EE000F1080C4FF0010808FA0CF3B1F80F
:100CE00000C00CEA03069E4221D183004FF00F0C96
:100CF0000CFA03F7BC4305FA03FC4CEA040491F830
:100D000003C0BCF1280F05D100F1080C08FA0CF85B
:100D1000C2F8148091F803C0BCF1480F07D100F16C
:100D2000080C4FF0010808FA0CF8C2F81080401CBB
:100D30000828CED35460BDE8F081024600209368B5
:100D40000B400BB1012000E000207047416170476B
:100D5000016170470AB1016100E04161704700BF65
:100D6000FEE7000000B587B00121042001F078F80B
:100D70000121080301F074F810208DF81B001820E1
:100D8000ADF8180003208DF81A0006A92148FFF7D6
:100D900049FF18208DF81B00A020ADF81800032093
:100DA0008DF81A0006A91B48FFF73CFF48208DF874
:100DB0001B004020ADF8180003208DF81A0006A98A
:100DC0001448FFF72FFF3820ADF810000020ADF8D1
:100DD0000C00ADF80A000720ADF814000020ADF8B3
:100DE0000800ADF80400ADF812004FF48270ADF8C1
:100DF00006004FF40070ADF80E0001A9064801F09E
:100E0000B1FB0121044801F093FB012001F09CFC9F
:100E100007B000BD000801400030014010B5044695
:100E200000BF02210A4801F08FFB0128F9D12146B9
:100E3000074801F095FB00BF0121054801F084FB44
:100E40000128F9D1024801F088FBC0B210BD0000B2
:100E50000030014038B56D48007801287DD1FE256D
:100E6000FF200090002400F0ABFB02220121084685
:100E700000F0E8FC03220221012000F0E3FC042240
:100E80000321012000F0DEFC05220421012000F0F6
:100E9000D9FC06220521012000F0D4FC07220621FE
:100EA000012000F0CFFC08220721012000F0CAFC3D
:100EB00009220821012000F0C5FC002000F0EAF919
:100EC0000BE0684601F074F905466420FFF773FDF6
:100ED000601CC4B2322C00D103E09DF80000FF2852
:100EE000EFD000BF322C01D1FFF776FCF5B900F04E
:100EF00067FB0A220121084600F0A4FC0B22022114
:100F0000012000F09FFC0C220321012000F09AFC3C
:100F10000D220421012000F095FCFFF754FC4FF452
:100F20007A70FFF748FD00F04BFB67E0FE2D65D1BE
:100F300000F046FB20220121084600F083FC21221C
:100F40000221012000F07EFC22220321012000F07A
:100F500079FC23220421012000E050E000F072FC23
:100F600024220121022000F06DFC252202210846E6
:100F700000F068FC26220321022000F063FC2722F7
:100F80000421022000F05EFC28220521022000F04E
:100F900059FC29220621022000F054FC2A220721B4
:100FA000022000F04FFC2B220821022000F04AFC16
:100FB0002C220121032000F045FC2D2202210320D8
:100FC00000F040FC2E220321084600F03BFC2F22BB
:100FD0000421032000F036FC30220521032000F01C
:100FE00031FC31220621032000F02CFCFFF7F4FB3A
:100FF0004FF47A70FFF7DFFC00F0E2FA00BF002048
:1010000002490870012000F045F938BD19000020A0
:1010100038B575480078012876D1FF20009000246B
:1010200000F0CEFA02220121084600F00BFC032258
:101030000221012000F006FC04220321012000F01F
:1010400001FC05220421012000F0FCFB0622052101
:10105000012000F0F7FB07220621012000F0F2FB3F
:1010600008220721012000F0EDFB092208210120C0
:1010700000F0E8FB002000F00DF90BE0684601F0FD
:1010800061F805466420FFF796FC601CC4B2322C60
:1010900000D103E09DF80000FF28EFD000BF322C04
:1010A00001D1FFF799FB85BB00F08AFA1A220121D2
:1010B000084600F0C7FB1B220221012000F0C2FB02
:1010C0001C220321012000F0BDFB1D220421012070
:1010D00000F0B8FB1E220521012000F0B3FB042321
:1010E00042480B210268012000F082FC1F220821E7
:1010F000012000F0A7FBFFF766FB4FF47A70FFF7C3
:101100005AFC00F05DFA67E067E0FFE7FE2D63D16F
:1011100000F056FA20220121084600F093FB21221C
:101120000221012000F08EFB22220321012000F089
:1011300089FB23220421012000F084FB24220121C9
:10114000022000F07FFB25220221084600F07AFBF6
:1011500026220321022000F075FB27220421022011
:1011600000F070FB28220521022000F06BFB2922F1
:101170000621022000F066FB2A220721022000F04F
:1011800061FB2B220821022000F05CFB2C220121B4
:10119000032000F057FB2D220221032000F052FB18
:1011A0002E220321084600F04DFB2F2204210320AC
:1011B00000F048FB30220521032000F043FB3122E0
:1011C0000621032000F03EFBFFF706FB4FF47A7088
:1011D000FFF7F1FB00F0F4F900BF002002490870AE
:1011E000012000F057F838BD1A00002064000020EC
:1011F0001FB50121082000F033FE0121084600F050
:101200002FFE48208DF80F004FF44050ADF80C0031
:1012100003208DF80E0003A91D48FFF703FD0C21E4
:101220000120FFF7DFFC0D210120FFF7DBFC4FF46D
:101230008050019001208DF80A0000208DF80800F0
:101240000C208DF8090001A8FFF782FC4FF4005034
:10125000019001208DF80A0000208DF808000C2074
:101260008DF8090001A8FFF773FC4FF4806000F0CF
:101270009DF928208DF8000001208DF80300002042
:101280008DF801008DF80200684600F057F91FBD87
:10129000000C01401CB504464FF4805000908DF8BE
:1012A000064000208DF804000C208DF805006846EB
:1012B000FFF74EFC4FF4005000908DF806400020E0
:1012C0008DF804000C208DF805006846FFF740FCFF
:1012D0001CBD00002DE9F041074688461546042153
:1012E000052000F02DF80021012000F009F98021EF
:1012F0000A2000F0F7F8002404E0395D092000F02E
:10130000FFF8641C4445F8D30321012000F0F8F8ED
:101310000A4C00BF052000F0C9F80646641E1CB147
:1013200006F004000028F5D0222000F0BFF8287055
:10133000212000F0BBF86870BDE8F081A0860100B4
:1013400070B505460C46284600F0B0F8064626EA79
:101350000401284600F0D4F870BD2DE9FE4F064682
:10136000884691469A46DDF830B0FE200290002073
:10137000019000900C2E06D00E2E09D11220019063
:101380001020009005E0772001903020009000E0D0
:1013900000BF00BF019840F08001022000F0B0F8CB
:1013A00080210420FFF7CCFF0021012000F0A8F8E5
:1013B00080210A2000F096F8002505E018F80510B5
:1013C000092000F09DF86D1C4D45F7D331460120F2
:1013D00000F096F80C2E03D180210D2000F082F849
:1013E0004FF4FA7500BF042000F060F804466D1E4B
:1013F00035B104F0010018B9009820400028F2D05F
:1014000080210D20FFF79CFF002D35D0062000F035
:101410004DF800F01B0068BB0020029001982040AE
:1014200000F0010008B1FF2002900C2E24D10A2008
:1014300000F03CF804460C2000F038F800F00707F4
:101440002FB1601E07EBC000ABF8000002E0E00027
:10145000ABF8000004B90124122C00DD1224002591
:1014600005E0092000F022F80AF805006D1CA542ED
:10147000F7D301E0FE20029080210C2000F032F82A
:101480000021012000F03CF80298BDE8FE8F00002A
:1014900010B5012210210448FFF75CFC012208214D
:1014A0000148FFF757FC10BD0008014070B5044625
:1014B0007E2000EA440040F0800500221021084808
:1014C000FFF748FC2846FFF7A9FC0020FFF7A6FC21
:1014D0000646012210210248FFF73CFC304670BD51
:1014E0000008014070B505460C4600262846FFF767
:1014F000DDFF064646EA0401284600F001F870BD0B
:1015000070B504460D467E2000EA440600221021F4
:101510000748FFF71FFC3046FFF780FC2846FFF71F
:101520007DFC012210210248FFF714FC70BD000071
:101530000008014000BFFEE77047000070B50021C1
:1015400000230F22C47804B3154C246804F4E0642B
:10155000C4F5E064210AC1F10403CA40447804FAE6
:1015600003F184781440214309010E4C0678A155FB
:10157000047804F01F050124AC4005786D11AD001E
:1015800005F1E025C5F8004109E0047804F01F05E5
:101590000124AC40044D0678761145F8264070BD14
:1015A0000CED00E000E400E080E100E002490143CE
:1015B000024A1160704700000000FA050CED00E0DF
:1015C00070B500240EE00021204600F0F0F8002560
:1015D00004E0002000F052FA681CC5B2802DF8DB50
:1015E000601CC4B2082CEEDB70BD000008B5012100
:1015F000082000F035FC14208DF8030003208DF83E
:1016000002004FF48070ADF8000069460A48FFF709
:1016100009FB4FF40070ADF8000069460648FFF77B
:1016200001FB012211020448FFF794FB0122510241
:101630000148FFF78FFB08BD000C014070B505465F
:10164000002415E08020204100EA05024FF40071DB
:101650000E48FFF77FFB012211020C48FFF77AFBCF
:1016600000224FF480710948FFF774FB601CC4B27C
:10167000082CE7DB012211020448FFF76BFB002274
:101680004FF480710148FFF765FB70BD000C01400D
:1016900010B5012251020A48FFF75CFB012211023A
:1016A0000748FFF757FB00224FF400710448FFF78B
:1016B00051FB00224FF480710148FFF74BFB10BD36
:1016C000000C014010B500224FF400710648FFF7EE
:1016D00041FB012211020448FFF73CFB01225102A9
:1016E0000148FFF737FB10BD000C014070B5002426
:1016F00006E0002500E06D1CB5F57A7FFBD3641C85
:10170000B4F57A7FF5D3FFF771FFAE2000F0A6F9AC
:10171000D52000F0A3F9802000F0A0F9A82000F067
:101720009DF93F2000F09AF9D32000F097F90020AE
:1017300000F094F9402000F091F9A12000F08EF91A
:10174000C82000F08BF9DA2000F088F9122000F0B0
:1017500085F9812000F082F9CF2000F07FF9D920AF
:1017600000F07CF9F12000F079F9DB2000F076F947
:10177000302000F073F9A42000F070F9A62000F0EA
:101780006DF98D2000F06AF9142000F067F9AF20A0
:1017900000F064F9FFF714FF70BD10B50246012098
:1017A00000E050430B1EA1F10101FAD110BD70B54C
:1017B00005460C4645F0B00000F050F9102141EA12
:1017C000141000F04BF904F00F0000F047F970BD61
:1017D0002DE9F04105460E461746721ED206110E3F
:1017E0006A1E5206100EFFF7E2FF002409E0A7F17F
:1017F0002001134A02EB0111085D00F03FF9601C63
:10180000C4B2082CF3DB721ED206110E6A1E01232D
:1018100003EB4202D0B2FFF7CAFF00240BE0A7F1AE
:101820002001074A02EB011204F10801505C00F0AC
:1018300025F9601CC4B2082CF1DBBDE8F081000082
:10184000E83A00082DE9F04105460E461746721E9B
:101850001207110E6A1E5206100EFFF7A8FF002491
:1018600007E0124A02EB8711085D00F007F9601CDF
:10187000C4B2102CF5DB721E1207110E6A1E012372
:1018800003EB4202D0B2FFF792FF002409E0790097
:10189000491C064A02EB4111085D00F0EFF8601C9C
:1018A000C4B2102CF3DBBDE8F0810000D840000882
:1018B00010B5002201210846FFF7C4FF01220221D2
:1018C0001046FFF7BFFF42A20521012000F0B2F849
:1018D0004048007890B13F480078012804D13EA2EA
:1018E000092100F0A7F813E03A48007802280FD148
:1018F0003BA20921012000F09DF809E014220521F6
:101900000120FFF79FFF152206210120FFF79AFF14
:10191000002201210220FFF795FF01220221084643
:10192000FFF790FF30A20521022000F083F829483C
:10193000407890B127484078012805D126A2092196
:10194000022000F077F812E02248407802280ED1F9
:1019500023A2092100F06EF809E0142205210220DB
:10196000FFF770FF152206210220FFF76BFF002210
:1019700001210320FFF766FF012202210320FFF768
:1019800061FF1AA20521032000F054F81148807865
:1019900098B110488078012805D10FA209210320B1
:1019A00000F048F813E00B48807802280FD10CA211
:1019B0000921032000F03EF809E01422052103204C
:1019C000FFF740FF152206210320FFF73BFF10BD64
:1019D000313A0000680000205649503100000000F4
:1019E0005649503200000000323A0000333A0000FD
:1019F0002DE9F04780460E4617461D46002415E0A7
:101A0000281B411E0A20FFF7C8FEB7FBF0F00A2191
:101A1000B0FBF1F201FB120000F130093019C1B244
:101A20004A464046FFF7D4FE601CC4B2AC42E7DB36
:101A3000BDE8F0872DE9F04107460E461546002423
:101A400007E02A5D3019C1B23846FFF7C1FE601CBD
:101A5000C4B2285D0028F4D1BDE8F08110B5044679
:101A6000FFF716FE7820FFF7E9FD0020FFF7E6FDFF
:101A70002046FFF7E3FDFFF725FE10BD10B5044635
:101A8000FFF706FE7820FFF7D9FD4020FFF7D6FDCF
:101A90002046FFF7D3FDFFF715FE10BD10B503215B
:101AA0001420FFF74DFC10BD10B51420FFF7FEFC0D
:101AB000044604F0030018B903211420FFF712FDB7
:101AC00010BDF0B587B00546002708210846FFF78E
:101AD00037FC00210D20FFF713FD80210E20FFF7BA
:101AE0002FFC93208DF8040020208DF8050006A817
:101AF00001AB022201A900900C20FFF72EFC064644
:101B000086B9002407E001A8005D285501A8005D02
:101B10004740601CC4B2042CF5DB01A8005DB8424C
:101B200000D0FE2680210E20FFF7DCFC304607B0F7
:101B3000F0BD2DE9F04387B006460F469046994622
:101B40008DF804608DF80570002406E018F8041084
:101B500001AAA01C1154601CC4B2062CF6DB0024A0
:101B600007E019F8041001AA04F108001154601CE0
:101B7000C4B2042CF5DB06A801AB0C2201A900902D
:101B80000E20FFF7EAFB05462DB90820FFF78EFC73
:101B900000F0080000B9FE25284607B0BDE8F08334
:101BA00010B5FFF775FC00F05FF8FFF777FF022034
:101BB000FEF701FFFFF778FF10BDF0B587B00546CF
:101BC0000E4630208DF804008DF805500DF1060208
:101BD000022101A8FFF77EFB06A801AB042201A9A0
:101BE00000900C20FFF7B9FB07466FB9BDF818004D
:101BF000902809D1002404E001A8005D3055601C44
:101C0000C4B2102CF8DB00E0FE27384607B0F0BD68
:101C100070B588B005460C4608210846FFF790FBD2
:101C200007210D20FFF76CFC03211420FFF75AFC5D
:101C30008DF8085007A802AB012202A900900C20E1
:101C4000FFF78BFB064656B9BDF81C00102806D1DD
:101C50009DF8080020709DF80900607000E0FE26E5
:101C6000F0B208B070BD000010B5012208211E4876
:101C7000FFF770F80220FEF79EFE002208211A48A6
:101C8000FFF768F80220FEF796FE012208211648A9
:101C9000FFF760F80220FEF78EFE0F210120FFF70C
:101CA0002FFC0220FEF787FE3D211120FFF728FCC4
:101CB0001E212D20FFF724FC00212C20FFF720FC03
:101CC0008D212A20FFF71CFC3E212B20FFF718FC5A
:101CD00040211520FFF714FCFFF7E0FE0220FEF77D
:101CE0006AFEFFF7E1FE10BD0008014070B588B044
:101CF000054693208DF8080070208DF8090000201B
:101D00008DF80E0000240BE0295D02AAA01C1154DE
:101D10009DF80E00295D48408DF80E00601CC4B28D
:101D2000042CF1DB0DF10F02072102A8FFF7D2FA14
:101D300008210846FFF704FB07A802AB092202A905
:101D400000900C20FFF709FB06462EB9BDF81C00D9
:101D5000182801D1002600E0FE26304608B070BDEC
:101D6000F0B587B006460D4617468DF804608DF82D
:101D700005500DF10602022101A8FFF7ABFA06A8F3
:101D800001AB042201A900900C20FFF7E6FA0446FB
:101D90004CB9BDF81800042805D19DF8040000F0E6
:101DA0000F000A2800D0FE24A4B93868019002AAC6
:101DB000042101A8FFF78EFA0020069006A801ABC7
:101DC000062201A900900C20FFF7C7FA0446FE2C5A
:101DD00000D00024FCB9B0208DF804008DF8055027
:101DE0000DF10602022101A8FFF774FA06A801AB63
:101DF000042201A900900C20FFF7AFFA04464CB969
:101E0000BDF81800042805D19DF8040000F00F006B
:101E10000A2800D0FE24204607B0F0BD704700001D
:101E200029B1064AD2690243044BDA6104E0034A4D
:101E3000D2698243014BDA61704700000010024012
:101E400029B1064A12690243044B1A6104E0034AAD
:101E500012698243014B1A61704700000010024072
:101E600029B1064A92690243044B9A6104E0034A8D
:101E700092698243014B9A61704700000010024052
:101E800029B1064AD2680243044BDA6004E0034AEF
:101E9000D2688243014BDA607047000000100240B4
:101EA00030B500210022002400232D4D6D6805F07F
:101EB0000C0121B1042905D0082923D105E0294DC1
:101EC000056022E0274D05601FE0254D6D6805F493
:101ED0007012234D6D6805F48034022505EB9242A3
:101EE0001CB9214D554305600BE01D4D6D6805F48F
:101EF00000351DB11C4D5543056002E0194D554399
:101F0000056002E0174D056000BF00BF144D6D680D
:101F100005F0F0010909154D6B5C0568DD40456071
:101F20000F4D6D6805F4E061090A104D6B5C456862
:101F3000DD4085600A4D6D6805F46051C90A0B4D9E
:101F40006B5C4568DD40C560054D6D6805F440413A
:101F5000890B074D6B5CC568B5FBF3F5056130BDBA
:101F60000010024000127A0000093D00000000202D
:101F70001000002030B503460C46002107E0585CF5
:101F8000655CA84200D101E0002030BD491C9142AF
:101F9000F5DB0120F9E7000070B505460C4600208E
:101FA0001849086018480021016018480160FE26A1
:101FB00000F04EF81448FFF799FE134B144A022123
:101FC0006020FFF7B6FD11490220FFF7F6FD064637
:101FD0000E480178407801EB00210C48807801EB35
:101FE00000400A49C9784942084406490860084641
:101FF0000068A84202D20020207001E00120207079
:10200000304670BD640000202500002080000020C4
:10201000E05A000810B50B4800210160FE2400F0D2
:1020200017F80848FFF762FE064B074A02216020B6
:10203000FFF77FFD054A0221C020FFF791FE04460D
:10204000204610BD25000020E05A00084D00002069
:1020500010B5FE24FFF708FE04492620FFF7D8FD3F
:102060000348FFF72EFD0446204610BD2400002043
:102070002500002070B5FE24FFF7EAFF04466CBB84
:102080000020FFF707F900F0B3F801280DD1FEF7A3
:102090009AFB01251448FFF729FE0446284600F064
:1020A000CFF811480021016017E000F0A1F80228E4
:1020B0000DD1FEF788FB02250B48FFF717FE0446FB
:1020C000284600F0BDF808480021016005E024B969
:1020D000FEF782FB04480021016000BF0120FFF7EA
:1020E000D9F8204670BD00002500002030B502461A
:1020F000002300BF1046D51702EB15752D11A2EB7A
:102100000515CD54D51702EB1575C5F30F12581CE4
:10211000C3B2002AEED14C78087848700C70CC78A5
:102120008878C8708C7048780D7840EA051008707F
:10213000C8788D7840EA0510487000208870C87013
:1021400030BD000070B504460020154908601548F0
:102150000021016014480160FE25FFF779FF20701F
:102160001048FFF7C3FD0F4B104A02216020FFF714
:10217000E0FC0D490220FFF720FD05460A480178E2
:10218000407801EB00210848807801EB00400649C7
:10219000C9784942084402490860284670BD0000D9
:1021A000640000202500002080000020E05A000884
:1021B00070B504460B4800210160FE25FFF748FF7B
:1021C00020700848FFF792FD064B074A0221602065
:1021D000FFF7AFFC054A0221C120FFF7C1FD05460C
:1021E000284670BD25000020E05A00084900002064
:1021F00010B5FFF72DFF0446D4B904220D490E484F
:10220000FFF7B8FE012804D10B480021016001202E
:1022100010BD042209490848FFF7ACFE012804D18B
:102220000548002101600220F2E70CB90020EFE729
:102230000320EDE758000020250000205C0000206E
:102240002DE9F8430646002700256C1E002000906B
:1022500000BF07E0AC49095CB14201D1044603E08C
:10226000411CC8B20428F5DB00BF601C00287CD0EC
:102270000020A5490855A54830F8240085B2E0B2F1
:1022800000F0B2FA00BF68006946FFF785FEFE283D
:10229000F9D09DF80000012869D14FF6FF7101EADD
:1022A00045009B49FFF722FF00BFFFF7B3FEFE2862
:1022B000FBD00127FFF784F93C2201210846FFF7F4
:1022C000C1FA3D2202210120FFF7BCFA3E22032180
:1022D0000120FFF7B7FA3F2204210120FFF7B2FAED
:1022E00003232A4609210120FFF782FB412207210F
:1022F0000120FFF7A7FA422201210220FFF7A2FAEC
:10230000432202210846FFF79DFA6A0003230521B4
:102310000220FFF76DFB402205210220FFF792FA11
:10232000322201210320FFF78DFA332202210320FC
:10233000FFF788FA342203210846FFF783FA352293
:1023400004210320FFF77EFA362205210320FFF740
:1023500079FA372206210320FFF774FA4FF47A70D6
:10236000FEF729FBFFF72CF9CAE04AE0FFE7FFF789
:1023700027F94A2201210846FFF764FA4B2202217D
:102380000120FFF75FFA4C2203210120FFF75AFAE0
:102390004D2204210120FFF755FA4E22052101208C
:1023A000FFF750FA4F2206210120FFF74BFA502287
:1023B00001210220FFF746FA512202210846FFF7C9
:1023C00041FA522203210220FFF73CFA5322042152
:1023D0000220FFF737FA542205210220FFF732FAD4
:1023E000552206210220FFF72DFA5622062102204F
:1023F000FFF728FA4FF47A70FEF7DDFAFFF7E0F8FE
:102400007EE04FF00008002007E03F49095C11B969
:102410004FF0010803E0411CC8B20428F5DB00BFFF
:10242000B8F1010F5ED1002006E03749095C09B917
:10243000044603E0411CC8B20428F6DB00BF324862
:1024400006550227FFF7BCF8012E05D131A2012164
:102450000846FFF7EFFA04E030A201210846FFF733
:10246000E9FA382204210120FFF7ECF9392205218D
:102470000120FFF7E7F93A2206210120FFF7E2F9F0
:102480003B2207210120FFF7DDF944220121022030
:10249000FFF7D8F9452202210846FFF7D3F9462273
:1024A00003210220FFF7CEF9472204210220FFF783
:1024B000C9F9482205210220FFF7C4F90223621C52
:1024C0000B211846FFF794FA492207210220FFF753
:1024D000B9F900F099F94FF47A70FEF76CFAFFF74A
:1024E0006FF80CE0FFF76CF80EA201210846FFF729
:1024F000A1FA4FF47A70FEF75EFAFFF761F800BFB9
:102500003846BDE8F8830000680000208C010020F8
:102510004D0000205649503100000000564950320D
:10252000000000004E6F205061726B21000000001F
:1025300021B1028842F04002028004E002884FF696
:10254000BF731A40028070470246002013890B4077
:102550000BB1012000E000207047014688897047D8
:102560008181704710B50022028802F441520B8825
:102570004C8823438C882343CC8823430C892343F2
:102580004C8923438C892343CC8923431A430280FB
:10259000838B4FF2FF74234083830B8A038210BD29
:1025A0007047000000B587B001218803FFF758FC91
:1025B00001210420FFF754FC18208DF81B004FF474
:1025C0000070ADF8180003208DF81A0006A9224803
:1025D000FEF728FB48208DF81B004FF48060ADF813
:1025E000180003208DF81A0006A91B48FEF71AFBF5
:1025F0004FF4E13002900020ADF814000C20ADF84B
:1026000012000020ADF81000ADF80E00ADF80C007F
:1026100002A9124800F0F8FB012240F225510F48B0
:1026200000F0CCFB4FF4A060FEF7C0FF25208DF832
:10263000040001208DF8070002208DF8050001201C
:102640008DF8060001A8FEF779FF0121034800F08C
:1026500072FB07B000BD00000008014000380140D7
:1026600010B500F001F810BD0CB5002001900090ED
:102670003348006840F480303149086000BF30487A
:10268000006800F4003000900198401C0190009810
:1026900018B90198B0F5A06FF1D12948006800F48D
:1026A000003010B10120009001E00020009000985F
:1026B000012843D12348006840F0100021490860F8
:1026C0000846006820F0030008600846006840F0F3
:1026D000020008601A484068194948600846406886
:1026E00048600846406840F480604860084640689A
:1026F00020F47C1048600846406840F4E8104860C8
:102700000846006840F08070086000BF0C48006810
:1027100000F000700028F9D00948406820F003005C
:10272000074948600846406840F00200486000BF22
:102730000348406800F00C000828F9D10CBD0000E7
:10274000001002400020024010B50446224610212D
:102750000148FEF7FFFA10BD000801407047000075
:1027600010B51348006840F00100114908600846A0
:102770004068104908400E494860084600680E4904
:1027800008400B4908600846006820F48020086073
:102790000846406820F4FE0048604FF41F0088603F
:1027A000FFF75EFF4FF000600449086010BD0000B5
:1027B000001002400000FFF8FFFFF6FE08ED00E009
:1027C00010B50121880700F0F2F9012804D105486D
:1027D0000068401C034908600121880700F0E1F807
:1027E00010BD00002000002010B504460020044960
:1027F00041F824000021034800F0F9F910BD000061
:102800008C0100200004004010B50121014800F0B7
:10281000CBF810BD0004004010B50121144800F0B1
:10282000C6F901281FD11348007820B1124800686A
:10283000401C114908600F48407820B10E4840689C
:10284000401C0D4948600B48807820B10A488068D8
:10285000401C094988600748C07820B10648C06814
:10286000401C0549C8600121014800F09AF810BDDC
:1028700000040040680000208C0100201FB50121E9
:102880000220FFF7CDFA1B4800F09AF80020ADF8BF
:102890000A00ADF8060042F21070ADF8080041F6EB
:1028A0001F40ADF8040000208DF80C0001A911486C
:1028B00000F0A0F9012211460E4800F089F901212B
:1028C0000C4800F06BF800210A4800F06DF84FF456
:1028D000E060FEF76BFE1D208DF8000001208DF8F2
:1028E00003008DF8010000208DF802006846FEF715
:1028F00025FE1FBD000400401FB501210420FFF785
:102900008FFA1C4800F06DF90020ADF80A00ADF810
:10291000060047F22F50ADF8080041F61F40ADF811
:10292000040000208DF80C0001A9124800F062F9A3
:10293000012211460F4800F04BF901210D4800F02B
:102940002DF84FF48060FEF731FE1E208DF8000058
:1029500001208DF8030006208DF8010000208DF87D
:1029600002006846FEF7EAFD0121024800F01CF86B
:102970001FBD00000008004010B50121054800F00F
:1029800016F9012801D1044908700121014800F01D
:1029900008F810BD0008004018000020CA43028259
:1029A0007047CA430282704721B1028842F0010297
:1029B000028004E002884FF6FE731A4002807047DE
:1029C00010B504466848844208D10121C014FFF7BD
:1029D00057FA0021E014FFF753FAC4E0B4F1804F36
:1029E00008D101210846FFF72BFA00210120FFF74B
:1029F00027FAB8E05D48844208D101210220FFF7A0
:102A00001FFA00210220FFF71BFAACE0584884426D
:102A100008D101210420FFF713FA00210420FFF759
:102A20000FFAA0E05348844208D101210820FFF7A3
:102A300007FA00210820FFF703FA94E04E48844289
:102A400008D101211020FFF7FBF900211020FFF72A
:102A5000F7F988E04948844208D101212020FFF796
:102A6000EFF900212020FFF7EBF97CE04448844295
:102A700008D101214014FFF703FA00216014FFF789
:102A8000FFF970E03F48844209D10121C804FFF7F3
:102A9000F7F900214FF40020FFF7F2F963E03A481C
:102AA000844209D101210805FFF7EAF900214FF41A
:102AB0008010FFF7E5F956E03448844209D101213E
:102AC0004805FFF7DDF900214FF40010FFF7D8F9B2
:102AD00049E02F48844208D101214020FFF7B0F996
:102AE00000214020FFF7ACF93DE02A48844208D19C
:102AF00001218020FFF7A4F900218020FFF7A0F931
:102B000031E02548844208D101218015FFF798F96A
:102B10000021A015FFF794F925E02048844209D14F
:102B200001210804FFF7ACF900214FF48030FFF7D2
:102B3000A7F918E01A48844209D101214804FFF797
:102B40009FF900214FF40030FFF79AF90BE0154888
:102B5000844208D101218804FFF792F900214FF443
:102B60008020FFF78DF910BD002C014000040040CB
:102B700000080040000C004000100040001400401D
:102B800000340140004C014000500140005401401D
:102B900000180040001C00400020004000400140A0
:102BA00000440140004801400146888C704730B520
:102BB0000246002000230024158A05EA01039589B6
:102BC00005EA010413B10CB1012000E0002030BD82
:102BD0001AB183890B43838102E083898B4383810C
:102BE000704701894FF6F872114001817047818466
:102BF00070470000002202881D4B98420ED01D4BEA
:102C000098420BD0B0F1804F08D01B4B984205D0B2
:102C10001A4B984202D01A4B984204D14FF68F7348
:102C20001A404B881A43174B984207D0164B9842CC
:102C300004D04FF6FF431A40CB881A4302808B889A
:102C400083850B8803850A4B98420BD0094B984229
:102C500008D00E4B984205D00D4B984202D00D4B38
:102C6000984201D10B7A03860123838270470000CA
:102C7000002C0140003401400004004000080040E6
:102C8000000C0040001000400014004000400140D3
:102C9000004401400048014010B540F225511B4856
:102CA00000F062F801282FD1184800F019F9C1B2DC
:102CB000174802680068401C154B1860154881547D
:102CC00018460068801E1349085C0D2801D10120B8
:102CD00000E000200E490968491E0E4A515C0A298D
:102CE00001D1012100E00021084340B10021084842
:102CF0000068801E074A115400200549086040F210
:102D00002551024800F008F810BD000000380140CD
:102D1000540000209000002010B50022002340F64F
:102D20006A14A14200D100BF0A1201249440A3B248
:102D3000DC43048010BD21B1828942F400528281BB
:102D400004E082894DF6FF731A4082817047024683
:102D50000020B1F5007F00D100BF13880B400BB1FC
:102D6000012000E00020704770B5024600240023D7
:102D70000025002040F66A16B14200D100BFC1F321
:102D8000421501F01F03012606FA03F3012D02D1BB
:102D90009689334006E0022D02D1168A334001E0C5
:102DA000968A33400C12012606FA04F41688344041
:102DB00013B10CB1012000E0002070BDF0B5034656
:102DC000002400260025002040F66A17B94200D1F1
:102DD00000BF1846C1F3421401F01F06012707FA8D
:102DE00006F5012C01D10C3004E0022C01D1103089
:102DF00000E014301AB107682F43076002E007684B
:102E0000AF430760F0BD00002DE9F04786B00546EE
:102E10000E460024A24600BFA1460027B08900B19B
:102E200000BF2F462C8A4CF6FF700440F088044304
:102E30002C82AC894EF6F3100440B08831890843E7
:102E4000718908430443AC81AC8A4FF6FF400440CB
:102E5000B0890443AC8201A8FFF722F81F488742DB
:102E600002D1DDF810A001E0DDF80CA0A88900F483
:102E7000004040B10AEBCA0000EB0A10316849007B
:102E8000B0FBF1F807E00AEBCA0000EB0A1031686A
:102E90008900B0FBF1F86420B8FBF0F004012009D0
:102EA000642101FB1089A88900F4004040B1322060
:102EB00000EBC900B0FBF1F000F00700044308E0AC
:102EC000322000EB09106421B0FBF1F000F00F009C
:102ED00004432C8106B0BDE8F087000000380140B3
:102EE00001468888C0F308007047C1F30802828059
:102EF000704700BFFEE7000010B500F025F804465B
:102F0000FDF7BAF90F49086008460068B0F5967FEA
:102F100002D9FDF77FFC13E00A480068C82802D9EF
:102F2000FDF795FC0CE007480068642802D9FDF71E
:102F300085FC05E003480068642801D2FDF77AFCAF
:102F400010BD0000140000202DE9F04700F0AAF8A1
:102F50004FF0000900BF04211F48FDF7EEFE0028D6
:102F6000F9D000214FF08040FFF741FE00201B49BF
:102F7000086001218807FFF717FD00BF04211648EC
:102F8000FDF7DBFE0128F9D000214FF08040FFF76C
:102F90000BFD124800684FF47A7100FB01F4C8067B
:102FA000FFF702FE0444782C0FD946F678108442CD
:102FB0000BD22046FDF753F90746094A094BFDF7A6
:102FC000D7F80546FDF77FF981466420FDF7F3FC4D
:102FD0004846BDE8F08700000008014020000020BE
:102FE0006ABC74931804C63F00B585B00121042063
:102FF000FEF736FF01210846FEF712FF10208DF87C
:1030000013000220ADF8100003208DF8120004A96F
:103010002348FDF707FE0420ADF8100028208DF8A6
:10302000130004A91E48FDF7FDFD4FF08040FFF797
:10303000C7FC0020ADF80A00ADF806004FF47A7026
:10304000ADF808004720ADF8040000208DF80C0012
:1030500001A94FF08040FFF7CDFD012211469007F6
:10306000FFF7B6FD01218807FFF798FC00214FF01C
:103070008040FFF799FC4FF4E060FEF797FA1C20C0
:103080008DF8000001208DF803008DF8010000206C
:103090008DF802006846FEF751FA05B000BD000049
:1030A0000008014010B502210548FDF751FE14202B
:1030B000FDF78DFC02210248FDF748FE10BD00001F
:1030C000000801400FB4054B10B503A9044A02984B
:1030D00000F0DAF810BC5DF814FB0000913900082C
:1030E0007C00002002E008C8121F08C1002AFAD1A3
:1030F00070477047002001E001C1121F002AFBD178
:10310000704700002DE9FF5F82B00021DDE9043047
:10311000020DDDF840B0034318D044F61050A2F27F
:10312000FF3242431514119801281FD0A5EB0B0064
:10313000401C5FEA000A4FF000064E4FDFF838915E
:10314000B046504615D5CAF1000413E01198012489
:103150004AA3012801D16FEA0B010298119AC0E934
:103160000031C0E9024206B0BDE8F09FCBF100009B
:10317000DFE704460021404A491842EB0450CDE9FC
:10318000001012E0E00707D032463B464046494671
:10319000FCF7EEFF8046894632463B46104619460C
:1031A000FCF7E6FF06460F466410002CEAD1DDE985
:1031B0000401DDE90023BAF1000F06DAFCF7D8FFBD
:1031C00042464B46FCF7D4FF05E0FDF72AFA42469B
:1031D0004B46FDF726FA04460E460022284BFDF723
:1031E000A7FA03D84FF0FF30014607E00022254B35
:1031F00020463146FDF76EF9FDF782FA102409E00A
:10320000002C0ADB0A220023FDF78FF8039B3032E3
:103210001A55641E50EA0102F2D1641C039AC4F1EB
:1032200011031444119A012A03D0012208430DD13D
:103230000AE0084304D000204FF0110B119072E710
:10324000A3EB0B056D1E0DE05B4504DD4FF00002A6
:1032500005F1010504E003DA4FF00002A5F10105D4
:10326000002AECD002981199C0E90231C0E900456A
:1032700079E70000000014400000F03F300000003B
:103280000000F0430000E03F2DE9FF4F95B09A4663
:10329000884606460025EEE1252877D100242746FA
:1032A000F94A0121039400E0044316F8013F203B52
:1032B00001FA03F01042F7D130782A2811D06FF0CC
:1032C0002F033078A0F13002092A16D8039A44F06F
:1032D000020402EB820203EB42021044761C0390CC
:1032E000EFE758F8042B0392002A03DA504244F423
:1032F0000054039044F00204761C30782E2816D136
:1033000016F8010F44F004042A280DD06FF02F02A4
:103310003078A0F13003092B09D807EB870302EBC3
:103320004303C718761CF3E758F8047B761C307803
:103330006C280FD006DC4C2817D068280DD06A28DE
:1033400014D104E0742810D07A280FD10DE044F491
:1033500000140AE044F4801401E044F4401472784C
:10336000824202D104F58014761C761C30786628DF
:103370000BD013DC582877D009DC002875D04528FD
:10338000F6D04628F4D047281AD193E118E06328F4
:1033900035D0642879D0652812D18BE1702873D09C
:1033A00008DC6728F1D069286FD06E280DD06F280F
:1033B00006D1ACE073282CD0752874D0782853D06F
:1033C0005246179990476D1C54E1C4F302500228ED
:1033D00009D003280DD0D8F8001004280DD00D60B6
:1033E00008F1040846E1D8F80010EA17C1E90052D4
:1033F000F6E7D8F800100D80F2E70D70F0E718F846
:10340000041B8DF8001000208DF80100EB46012010
:1034100003E058F804BB4FF0FF3061074FF00001A4
:1034200002D40DE009F101018946B9420FDA814564
:10343000F8DB1BF809100029F4D108E009F10101BB
:1034400089468142FADB1BF809100029F6D103985E
:103450005346A0EB090721463846179A00F080FA38
:10346000284400EB090507E044E008E10DE01BF803
:10347000010B524617999047B9F10109F7D253460B
:1034800021463846179AF2E039E00A21C4F3025285
:103490004FF0000B0091022A06D058F8040BC11718
:1034A000032A09D00AE023E008F1070020F0070210
:1034B000F2E80201904605E000B2C117042A01D1EA
:1034C00040B2C117002906DA0A460021404261EBEA
:1034D00002012D2202E0220504D52B228DF80420C2
:1034E000012203E0E20701D02022F7E7914657E0EE
:1034F0000A2100E010214FF0000B00910BE0102199
:103500004FF0000B44F004040827009103E008206A
:103510004FF0000B0090C4F30252022A05D058F875
:10352000040B0021032A08D008E008F1070020F06E
:103530000702F2E80201904603E080B2042A00D1BB
:10354000C0B24FF0000922072AD53278702A07D07E
:10355000DDF800C08CF0100C5CEA0B0C05D00EE01E
:1035600040228DF80420012208E050EA010306D031
:1035700030238DF804308DF8052002229146009BFF
:1035800083F0080353EA0B030AD150EA010201D188
:10359000620705D530228DF804204FF001097F1E07
:1035A0003278582A04D039A20C920CAA02920BE06D
:1035B0003BA2F9E75B46009AFCF7B7FE0C9B9B5CCD
:1035C000029A521E0292137050EA0102F2D102983E
:1035D00004A9081A00F1200B600702D524F48034F6
:1035E00000E001275F4502DDA7EB0B0000E00020B3
:1035F00000EB0B01009003984944401A0390E0034C
:1036000006D453462146179A039800F0A9F90544B9
:10361000002706E001A85246C05D179990476D1C2F
:103620007F1C4F45F6DBE0030CD553462146179A25
:10363000039800F095F9054404E0302052461799AC
:1036400090476D1C0099481E00900029F5DC08E0A9
:103650000298029952460078491C029117999047A6
:103660006D1CBBF10001ABF1010BF1DC5BE100F083
:1036700065F90544761C307800287FF40DAE19B04A
:103680002846BDE8F08F00000928010030313233B0
:10369000343536373839616263646566000000008E
:1036A0003031323334353637383941424344454678
:1036B00000000000600700D4062708F1070020F092
:1036C0000700F0E80223804603F0004C5FEA0C009C
:1036D00001D097A009E0200501D596A005E0E007FC
:1036E00001D095A001E0AFF24C001390307823F0A8
:1036F000004365280CD006DC452809D046281DD09B
:1037000047287FD13BE0662818D067287AD136E079
:103710000021112F01DB112000E0781CCDE9000110
:1037200004A90CA8FFF7EEFCDDE90D010C9A4FF09F
:10373000000B07F10109109200914EE04FF000409C
:103740000097CDE9011004A90CA8FFF7DBFCDDE927
:103750000D020C9B0F994FF0000B914610930092B5
:1037600011B9791C00EB0109B7EB090003D4C0F1D2
:10377000FF3B07F10109A9EB0700019042E0012F8F
:1037800000DA01270021112F01DD112000E0384669
:10379000CDE9000104A90CA8FFF7B4FCDDE90D0197
:1037A0000C9A00914FF0000BB946109221070FD4EC
:1037B000009A4A4503DA914601E0A9F10109B9F1FD
:1037C000010F05DD109AA9F10101515C3029F4D0F7
:1037D000B84202DA10F1040F03DA0121CDE9011039
:1037E00010E0002803DC8344A9EB000102E0411C47
:1037F000494500DD8946A0EB0B00401C01904FF0CD
:1038000000400290200705D40198484502DB4FF0A4
:10381000FF30019000208DF84B0002980DF14B070E
:10382000B0F1004F25D002200C902B200D90029873
:1038300000280CDA404202902D200D9007E00A216A
:103840000298FCF75CFD3031029007F8011D0C99DD
:10385000481E0C900029F2DC02980028EFD1791E56
:103860000D980870307800F0200040F0450007F80F
:10387000020D11A8C01BC01D02901398007800B162
:10388000012000EB0901019801EBE071029801446D
:103890000398401A401E0390E00306D45346214685
:1038A000179A039800F05CF805441398007818B153
:1038B0005246179990476D1CE00323D55346214685
:1038C000179A039800F04CF805441BE0BBF1000F79
:1038D00007DB0098584504DD1098179910F80B0085
:1038E00001E0179930205246904701980BF1010BE7
:1038F000401E05F10105019004D12E205246179972
:1039000090476D1CB9F10001A9F10109DEDC05E069
:1039100017F8010B5246179990476D1C0299481EE3
:1039200002900029F4DC53462146179A03989EE63C
:103930002D0000002B000000200000002DE9F041C8
:10394000044600251E461746880404D405E039467F
:103950002020B0476D1C641EF9D52846BDE8F081D3
:103960002DE9F041044600251E469046C80301D5C6
:10397000302700E02027880404D505E0414638467A
:10398000B0476D1C641EF9D52846BDE8F0810000E3
:1039900070B504460D46E1B20548FFF7A6FA00BF30
:1039A00040210348FFF7D3F90028F9D0204670BD25
:1039B0000038014008B5FDF799FE5722022108465C
:1039C000FDF740FF582203210220FDF73BFF59225B
:1039D00004210220FDF736FF5A2205210220FDF7BF
:1039E00031FF5B2206210220FDF72CFF5C2207211C
:1039F0000220FDF727FFFDF701F8FDF7E1FDFDF7D8
:103A0000B1F9FDF745FDFEF7CBF8FCF729FFFDF70F
:103A1000EFFBFEF733FFFFF7E7FAFEF76DFFFCF76A
:103A2000F9FE48E0FDF716FAFDF7F2FAFFF764FA3F
:103A3000FEF720FB48B92048C07800901E488378E4
:103A4000427801781DA0FFF73DFBFDF731FF1822FA
:103A500001210420FDF7F6FE192202210420FDF7C2
:103A6000F1FE1EA205210420FDF7E4FF1C480068BA
:103A70000A21B0FBF1F40323224609210420FDF7BB
:103A8000B7FF2E220C210420FDF7A2FE1448006887
:103A90004FF47A71B0FBF1F201FB120401232246CC
:103AA0000D210420FDF7A4FF0EA20E210420FDF736
:103AB000C1FFFCF7F1FEB5E7250000204361726409
:103AC0004944313A3078257820307825782030788C
:103AD000257820307825780D0A000000203A000073
:103AE00014000020636D00000000000000000000D2
:103AF0000000000000000000000000F800000000CE
:103B0000000000333000000000100C06100C06000E
:103B1000000000000000000040C07840C078400075
:103B2000043F04043F040400007088FC08300000D7
:103B3000001820FF211E0000F008F000E01800002F
:103B400000211C031E211E0000F0088870000000E8
:103B50001E2123241927211010160E00000000003A
:103B60000000000000000000000000E01804020057
:103B7000000000071820400000020418E0000000C8
:103B80000040201807000000404080F080404000C6
:103B90000202010F01020200000000F0000000001C
:103BA0000101011F010101000000000000000000F0
:103BB00080B0700000000000000000000000000065
:103BC00000010101010101010000000000000000EE
:103BD0000030300000000000000000008060180489
:103BE000006018060100000000E010080810E00066
:103BF000000F102020100F00001010F8000000002F
:103C00000020203F20200000007008080888700075
:103C100000302824222130000030088888483000F5
:103C20000018202020110E000000C02010F8000015
:103C300000070424243F240000F8088888080800AE
:103C40000019212020110E0000E0108888180000C3
:103C5000000F112020110E0000380808C838080095
:103C60000000003F00000000007088080888700015
:103C7000001C222121221C0000E010080810E00096
:103C80000000312222110F00000000C0C00000001F
:103C90000000003030000000000000800000000044
:103CA000000080600000000000008040201008003C
:103CB0000001020408102000404040404040400005
:103CC00004040404040404000008102040800000E0
:103CD0000020100804020100007048080808F000E5
:103CE0000000003036010000C030C828E810E000B5
:103CF0000718272423140B000000C038E000000040
:103D0000203C23020227382008F8888888700000A9
:103D1000203F202020110E00C0300808080838007D
:103D2000071820202010080008F808080810E000F4
:103D3000203F202020100F0008F88888E808100095
:103D4000203F20202320180008F88888E808100069
:103D5000203F200003000000C030080808380000A1
:103D600007182020221E020008F808000008F808A2
:103D7000203F210101213F20000808F80808000029
:103D80000020203F2020000000000808F80808005C
:103D9000C08080807F00000008F888C028180800D4
:103DA000203F20012638200008F80800000000000D
:103DB000203F20202020300008F8F800F8F8080004
:103DC000203F003F003F200008F830C00008F808FE
:103DD000203F200007183F00E01008080810E0000E
:103DE0000F10202020100F0008F808080808F00025
:103DF000203F210101010000E01008080810E00048
:103E00000F18242438504F0008F8888888887000DC
:103E1000203F2000030C302000708808080838007C
:103E20000038202121221C00180808F80808180072
:103E30000000203F2000000008F808000008F808F3
:103E4000001F202020201F000878880000C83808A4
:103E5000000007380E010000F80800F80008F8001C
:103E6000033C0700073C03000818688080681808B6
:103E700020302C03032C30200838C800C838080034
:103E80000000203F2000000010080808C838080083
:103E90002038262120201800000000FE0202020027
:103EA0000000007F40404000000C30C000000000D7
:103EB000000000010638C00000020202FE000000FF
:103EC000004040407F0000000000040202020400A5
:103ED00000000000000000000000000000000000E2
:103EE00080808080808080800002020400000000CA
:103EF00000000000000000000000808080800000C2
:103F00000019242222223F2008F8008080000000AF
:103F1000003F112020110E00000000808080000072
:103F2000000E112020201100000000808088F80081
:103F3000000E112020103F200000808080800000B3
:103F4000001F222222221300008080F08888881817
:103F50000020203F20200000000080808080800022
:103F6000006B94949493600008F8008080800000B7
:103F7000203F210000203F20008098980000000092
:103F80000020203F202000000000008098980000C2
:103F900000C08080807F000008F8000080808000E2
:103FA000203F24022D302000000808F80000000007
:103FB0000020203F202000008080808080808000C2
:103FC000203F20003F20003F808000808080000054
:103FD000203F210000203F200000808080800000E2
:103FE000001F202020201F00808000808000000013
:103FF00080FFA12020110E00000000808080800042
:10400000000E112020A0FF80808080008080800032
:1040100020203F212000010000008080808080005F
:104020000033242424241900008080E080800000D4
:104030000000001F20200000808000000080800021
:10404000001F202020103F20808080000080808082
:1040500000010E3008060100808000800080808012
:104060000F300C030C300F00008080008080800037
:104070000020312E0E312000808080000080808062
:1040800080818E7018060100008080808080800012
:104090000021302C2221300000000000807C020230
:1040A00000000000003F404000000000FF00000052
:1040B00000000000FF0000000002027C8000000001
:1040C0000040403F0000000000060101020204041D
:1040D00000000000000000000008884828180FE8D1
:1040E00008080808080800000000000000000000A0
:1040F000000000000000000008080909090909FF84
:104100000909090909080800000000000000000072
:104110000000000000000000008060F80710901010
:1041200011161010D0100000000000000000000068
:104130000000000000000000010000FF4040415E60
:104140004040704E41404000000000000000000070
:1041500000000000000000004042CC000044545425
:10416000547F5454544440000000000000000000FC
:10417000000000000000000000007F201000FF157C
:10418000151555957F00000000000000000000009C
:1041900000000000000000000808F94A48C8482054
:1041A000D8171010F01010000000000000000000F0
:1041B000000000000000000040300F20403F804021
:1041C00021160816214080000000000000000000B9
:1041D0000000000000000000000000000001E21CE0
:1041E000E0000000000000000000000000000000EF
:1041F0000000000000000000804020100C030000C0
:1042000000030C304080800000000000000000002F
:104210000000000000000000201008FC2310886748
:1042200004F40424548C000000000000000000008E
:10423000000000000000000040300077808188B25C
:10424000848380E000116000000000000000000096
:10425000000000000000000000F80C0B0808F84007
:10426000308F080808F8000000000000000000007F
:104270000000000000000000007F212121217F00BC
:1042800000004380403F00000000000000000000EC
:1042900000000000000000008060F8070004745473
:1042A0005556545474040000000000000000000043
:1042B00000000000000000000000FF0003010545B1
:1042C000857D0505050103000000000000000000D9
:1042D00000000000000000000008884828180FE8CF
:1042E000080808080808000000000000000000009E
:1042F000000000000000000008080909090909FF82
:104300000909090909080800000000000000000070
:104310000000000000000000404040404040FF44DA
:1043200044444444444040000000000000000000B9
:104330000000000000000000000000000000FF007E
:10434000000204081000000000000000000000004F
:104350000000000000000000040484C4A49C8586C2
:104360008484A4C484040400000000000000000051
:10437000000000000000000000808040300F0000BE
:10438000007F808081F0000000000000000000003D
:104390000000000000000000008060F80704E4A4B2
:1043A000A4BFA4A4E404000000000000000000007A
:1043B0000000000000000000010000FF40407F4AB4
:1043C0004A4A4A4A7F4040000000000000000000C6
:1043D00000000000000000000000F88888888808BD
:1043E00008FF08090AC808000000000000000000DB
:1043F000000000000000000080601F0010201F80EF
:10440000402116182641F8000000000000000000BE
:104410000000000000000000080808F80808081064
:1044200010FF101010F0000000000000000000005D
:1044300000000000000000001030101F0888483005
:104440000E014080403F000000000000000000001E
:104450000000000000000000201008FC2310886706
:1044600004F40424548C000000000000000000004C
:10447000000000000000000040300077808188B21A
:10448000848380E000116000000000000000000054
:10449000000000000000000000F80C0B0808F840C5
:1044A000308F080808F8000000000000000000003D
:1044B0000000000000000000007F212121217F007A
:1044C00000004380403F00000000000000000000AA
:1044D0000000000000000000404040404040FF4419
:1044E00044444444444040000000000000000000F8
:1044F0000000000000000000000000000000FF00BD
:10450000000204081000000000000000000000008D
:10451000000000000000000080808888888888FFF4
:1045200088888888888080000000000000000000E3
:10453000000000000000000020201008040201FF1D
:10454000010204081020200000000000000000000C
:1045500000000000000000001060028C0008080845
:1045600009FA080808080000000000000000000028
:10457000000000000000000004047E0140404141B2
:10458000417F414141414000000000000000000027
:104590000000000000000000808080FE8282FE801B
:1045A00080FE8282FE80800000000000000000008B
:1045B00000000000000000000080403F00407F80BD
:1045C000601F40807F00000000000000000000002D
:1045D00000000000000000000040424242C27E4253
:1045E000C2424242404000000000000000000000C3
:1045F0000000000000000000804020100C030000BC
:104600003F404040407000000000000000000000FB
:1046100000000000000000000008884828180FE88B
:10462000080808080808000000000000000000005A
:10463000000000000000000008080909090909FF3E
:10464000090909090908080000000000000000002D
:10465000000000000000000004040484E43C27245F
:10466000242424E4040404000000000000000000EE
:10467000000000000000000004020100FF09090919
:104680000949897F000000000000000000000000D0
:1046900000000000000000000008884828180FE80B
:1046A00008080808080800000000000000000000DA
:1046B000000000000000000008080909090909FFBE
:1046C00009090909090808000000000000000000AD
:1046D0000000000000000000003E22E2223E00FE3A
:1046E0002222222222E2020000000000000000003C
:1046F0000000000000000000203F201F1111007F7B
:1047000044444444444740000000000000000000CE
:104710000000000000000000040404F484D4A5A6F6
:10472000A4D484F40404040000000000000000008D
:10473000000000000000000000FE0202123A161302
:10474000121A3242827E00000000000000000000C9
:104750000000000000000000404040404040FF4496
:104760004444444444404000000000000000000075
:104770000000000000000000000000000000FF003A
:10478000000204081000000000000000000000000B
:104790000000000000000000000000000000FF40DA
:1047A00040404040400000000000000000000000C9
:1047B00000000000000000004040404040407F40BA
:1047C0004040404040404000000000000000000029
:1047D000000000000000000080804020504844C3DA
:1047E000444850204080800000000000000000008D
:1047F00000000000000000000040221A0242827FF8
:104800000202020A12600000000000000000000026
:104810000000000000000000008C44B526A4640CD9
:1048200002F21AD612F2020000000000000000009E
:1048300000000000000000001008FC4A494AFC0883
:10484000804F300F102FC00000000000000000005B
:1048500000000000000000000020222C2020E03F8B
:1048600020202020E00000000000000000000000E8
:104870000000000000000000804020100806010039
:10488000014680403F0000000000000000000000E2
:1048900000000000000000002020222222E222224C
:1048A00022E222222220200000000000000000005E
:1048B0000000000000000000804020100C030000F9
:1048C000003F404040407800000000000000000031
:1048D00000000000000000000000FE121212F212A0
:1048E000121E00F00000FF000000000000000000A9
:1048F0000000000000000000100E013F0101FF1148
:10490000211F000F40807F00000000000000000019
:104910000000000000000000404040404040FF44D4
:1049200044444444444040000000000000000000B3
:104930000000000000000000000000000000FF0078
:104940000002040810000000000000000000000049
:1049500000000000000000000040301E101010FF9A
:1049600010101010100000000000000000000000F7
:10497000000000000000000081814121110D0301B1
:10498000030D1121418181000000000000000000A2
:10499000000000000000000000FE02FA02FE4020BD
:1049A000D8171010F01010000000000000000000E8
:1049B00000000000000000008047300F10678040BA
:1049C00021160816214080000000000000000000B1
:1049D00000000000000000004042CC00004454549D
:1049E000547F545454444000000000000000000074
:1049F000000000000000000000007F201000FF15F4
:104A0000151555957F000000000000000000000013
:104A100000000000000000001010D0FF9050205057
:104A20004C434C50204040000000000000000000BB
:104A30000000000000000000040300FF0041445893
:104A4000414E605847404000000000000000000058
:104A50000000000000000000404424A4948C84FF67
:104A6000848C94A424444000000000000000000056
:104A700000000000000000004040405F4A4A4A4AEF
:104A80004A4A4A5F40404000000000000000000029
:104A90000000000000000000201008FC23108867C0
:104AA00004F40424548C0000000000000000000006
:104AB000000000000000000040300077808188B2D4
:104AC000848380E00011600000000000000000000E
:104AD000000000000000000000F80C0B0808F8407F
:104AE000308F080808F800000000000000000000F7
:104AF0000000000000000000007F212121217F0034
:104B000000004380403F0000000000000000000063
:104B100000000000000000008060F80700047454EA
:104B200055565454740400000000000000000000BA
:104B300000000000000000000000FF000301054528
:104B4000857D050505010300000000000000000050
:104B500000000000000000000008884828180FE846
:104B60000808080808080000000000000000000015
:104B7000000000000000000008080909090909FFF9
:104B800009090909090808000000000000000000E8
:104B90000000000000000000404040404040FF4452
:104BA0004444444444404000000000000000000031
:104BB0000000000000000000000000000000FF00F6
:104BC00000020408100000000000000000000000C7
:104BD00000000000000000004020589724C43C1052
:104BE00010D03FD0121410000000000000000000A0
:104BF00000000000000000008068040221C00804DA
:104C000023C0000023C408000000000000000000D2
:104C10000000000000000000000000FC2424242408
:104C20002222222322202000000000000000000099
:104C300000000000000000004020180700FE424273
:104C400042424242FE00000000000000000000005E
:104C50000000000000000000101014D4545454FC54
:104C6000525252D312101000000000000000000049
:104C70000000000000000000404050575555557F8F
:104C800055555557504040000000000000000000FE
:104C9000000000000000000040445465C664544415
:104CA00000FC4444C442400000000000000000003A
:104CB000000000000000000020124A827F020A92D9
:104CC000601F0000FF000000000000000000000066
:104CD00000000000000000000808F94A48C8482009
:104CE000D8171010F01010000000000000000000A5
:104CF000000000000000000040300F20403F8040D6
:104D0000211608162140800000000000000000006D
:104D10000000000000000000000000000001E21C94
:104D2000E0000000000000000000000000000000A3
:104D30000000000000000000804020100C03000074
:104D400000030C30408080000000000000000000E4
:104D50000000000000000000080889EE98007E4274
:104D6000C24242C2427E000000000000000000007B
:104D70000000000000000000020100FF8043201836
:104D80000700003F404078000000000000000000E5
:104D90000000000000000000201008FC23108867BD
:104DA00004F40424548C0000000000000000000003
:104DB000000000000000000040300077808188B2D1
:104DC000848380E00011600000000000000000000B
:104DD00000000000000000008080808080808080D3
:104DE0008080808080808000000000000000000043
:104DF00000000000000000000000000000000000B3
:104E000000000000000000000000000000000000A2
:104E10000000000000000000003E22E2223E0010E0
:104E2000885724548C00000000000000000000009F
:104E30000000000000000000407E403F22220001F0
:104E4000FE424242FE01010000000000000000009E
:104E5000000000000000000000FE00FC00FF00F267
:104E6000121AD61212F20200000000000000000028
:104E70000000000000000000403F003F00FF804FA6
:104E800020180710204F80000000000000000000E4
:104E900000000000000000000000FE021222C2021A
:104EA000C23202FE0000000000000000000000000E
:104EB000000000000000000080601F0020100C03B4
:104EC0000C30000F3040F80000000000000000002F
:104ED000000000000000000004244484649C403072
:104EE0000FC808082818000000000000000000009B
:104EF000000000000000000010080601824C20188D
:104F0000060106182040800000000000000000009C
:104F10000000000000000000404042CC0000FC0403
:104F20000200FC0404FC000000000000000000007F
:104F300000000000000000000040201F20404F44FF
:104F400042407F4244434000000000000000000057
:104F500000000000000000004040424458C0407F74
:104F600040C05048464040000000000000000000E3
:104F700000000000000000008080402018070000B2
:104F8000003F40404040780000000000000000006A
:104F9000000000000000000000F80000FF402018A2
:104FA0000F18680808080800000000000000000052
:104FB0000000000000000000001F0000FF00007F54
:104FC00021213F21217F000000000000000000009F
:104FD00000000000000000000010101010D030FF92
:104FE00030D0101010100000000000000000000081
:104FF000000000000000000010080402090808FF7B
:105000000808090204081000000000000000000069
:10501000000000000000000000020C8060804030B2
:105020000FC8080828180000000000000000000059
:10503000000000000000000002027E0180402018F5
:10504000060106182040800000000000000000005B
:1050500000000000000000008060F80700047454A5
:105060005556545474040000000000000000000075
:1050700000000000000000000000FF0003010545E3
:10508000857D05050501030000000000000000000B
:1050900000000000000000000008884828180FE801
:1050A00008080808080800000000000000000000D0
:1050B000000000000000000008080909090909FFB4
:1050C00009090909090808000000000000000000A3
:1050D00000000000000000002020222222E2222204
:1050E00022E2222222202000000000000000000016
:1050F0000000000000000000804020100C030000B1
:10510000003F4040404078000000000000000000E8
:1051100000000000000000002424A4FE232200C0A0
:105120003800FF00081060000000000000000000D0
:105130000000000000000000080601FF0106818059
:10514000404027100C030000000000000000000099
:10515000000000000000000000FC0000FF004020F4
:10516000D8171010F0101000000000000000000020
:105170000000000000000000000F0402FF0080405B
:1051800021160816214080000000000000000000E9
:10519000000000000000000000023AAA6A3F2A2A2C
:1051A0002AFF2AAA2EE000000000000000000000F4
:1051B00000000000000000000002819E4242221A0E
:1051C0002222425E8100000000000000000000007A
:1051D0000000000000000000201008FC2310886779
:1051E00004F40424548C00000000000000000000BF
:1051F000000000000000000040300077808188B28D
:10520000848380E0001160000000000000000000C6
:10521000000000000000000000F80C0B0808F84037
:10522000308F080808F800000000000000000000AF
:105230000000000000000000007F212121217F00EC
:1052400000004380403F000000000000000000001C
:1052500000000000000000000008884828180FE83F
:10526000080808080808000000000000000000000E
:10527000000000000000000008080909090909FFF2
:1052800009090909090808000000000000000000E1
:105290000000000000000000008060F8071090107F
:1052A00011161010D01000000000000000000000D7
:1052B0000000000000000000010000FF4040415ECF
:1052C0004040704E414040000000000000000000DF
:1052D00000000000000000000000007F494949492B
:1052E0004949497F00000000000000000000000064
:1052F00000000000000000008141211D214181FFCC
:1053000089898989898181000000000000000000EE
:105310000000000000000000808080BEA2A2A2A2C7
:10532000A2A2A2BE80808000000000000000000059
:105330000000000000000000000000060504040456
:105340004484443C00000000000000000000000015
:105350000000000000000000404040404040FF448A
:105360004444444444404000000000000000000069
:105370000000000000000000000000000000FF002E
:1053800000020408100000000000000000000000FF
:105390000000000000000000000000000000FF40CE
:1053A00040404040400000000000000000000000BD
:1053B00000000000000000004040404040407F40AE
:1053C000404040404040400000000000000000001D
:1053D000000000000000000080804020504844C3CE
:1053E0004448502040808000000000000000000081
:1053F00000000000000000000040221A0242827FEC
:105400000202020A1260000000000000000000001A
:105410000000000000000000008C44B526A4640CCD
:1054200002F21AD612F20200000000000000000092
:1054300000000000000000001008FC4A494AFC0877
:10544000804F300F102FC00000000000000000004F
:10545000000000000000000000020202028242F28E
:105460000E42820202020000000000000000000064
:10547000000000000000000010080402010000FF0E
:1054800000000001020C000000000000000000000D
:1054900000000000000000000000007E424242C206
:1054A0004242427E000000000000000000000000B8
:1054B00000000000000000008040300E1020407FFF
:1054C0004444444444404000000000000000000008
:1054D00000000000000000004042CC000044545492
:1054E000547F545454444000000000000000000069
:1054F000000000000000000000007F201000FF15E9
:10550000151555957F000000000000000000000008
:10551000000000000000000000007C40404040FF10
:1055200040404040FC00000000000000000000007F
:105530000000000000000000007C40404040407F30
:105540004040404040FC000000000000000000001F
:1055500000000000000000000000FC2424A4643DC2
:10556000A6242424242404000000000000000000DD
:10557000000000000000000040300F101312121253
:10558000FF121212121010000000000000000000B4
:105590000000000000000000000000FC242424247F
:1055A0002222222322202000000000000000000010
:1055B00000000000000000004020180700FE4242EA
:1055C00042424242FE0000000000000000000000D5
:1055D0000000000000000000000000FC242424243F
:1055E00022222223222020000000000000000000D0
:1055F00000000000000000004020180700FE4242AA
:1056000042424242FE000000000000000000000094
:105610000000000000000000040484C4A49C8586EF
:105620008484A4C48404040000000000000000007E
:10563000000000000000000000808040300F0000EB
:10564000007F808081F0000000000000000000006A
:105650000000000000000000008060F80704E4A4DF
:10566000A4BFA4A4E40400000000000000000000A7
:105670000000000000000000010000FF40407F4AE1
:105680004A4A4A4A7F4040000000000000000000F3
:10569000000000000000000008042322262A22FA4D
:1056A000242322262A02020000000000000000003D
:1056B000000000000000000001090909196909093A
:1056C00049897D090909010000000000000000006F
:1056D0000000000000000000001088C4334048486B
:1056E000487F48C848484000000000000000000013
:1056F0000000000000000000020100FF00020A326A
:105700000242827F0202020000000000000000004E
:10571000000000000000000000FE0222428272022F
:105720002242827202FE0000000000000000000021
:10573000000000000000000000FF100806010E102D
:105740000806014E807F00000000000000000000FD
:1057500000000000000000002030AC633020101872
:10576000A744A4140C00000000000000000000008A
:10577000000000000000000022672212120402FD57
:1057800044444445FD020200000000000000000007
:105790000000000000000000404042CC00044464CF
:1057A0005C47F44444440400000000000000000092
:1057B00000000000000000000040201F204444447E
:1057C00044447F44444444000000000000000000C2
:1057D0000000000000000000101010FF10504454A2
:1057E00065C644645444400000000000000000000E
:1057F00000000000000000000444827F0182824A11
:10580000562322524E8202000000000000000000D9
:105810000000000000000000000000C080808080C8
:10582000808080FC84808080808080C0C0000000F8
:10583000000000FF7F404040404040FF404040406B
:10584000404040FF7F00000000000000000000001A
:105850000000007F70000000000000000000000059
:10586000000000000000000000000000000000FC3C
:10587000F800000000000000000000000000000030
:1058800000000000FFFE020202020202020202FF0A
:10589000FF020202020202020202FF0300000000F5
:1058A000000000001F1F040404040404040404FF97
:1058B000FF0404040404040404041F0000000000A6
:1058C0000000000000000000000000000000007F59
:1058D0003F00000000000000000000000000000089
:1058E00000000000000000000000000000000000B8
:1058F00000000000000000000000000000F8F8F0C8
:10590000F070200000000000000000000000000017
:105910000000000000000000000000000000000087
:1059200000000000000000008000000000000000F7
:1059300000000000000000000000000000FFFFFF6A
:10594000FF00000000000000000000000000000058
:105950000000000080800000000000000000000047
:10596000000000000000000000FFFFFE0606060623
:1059700006060606060606060606060606FFFFFFDC
:10598000FF060606060606060606060606060606BE
:10599000060606FFFFFFFF070200000000000000F0
:1059A000000000000000000000FFFFFF00000000FA
:1059B00000000000000000000000000000FFFFFFEA
:1059C000FF000000000000000000000000000000D8
:1059D000000000FFFFFFFF000000000000000000CB
:1059E000000000000000000000FFFFFF181818185A
:1059F00018181818181818181818181818FFFFFF72
:105A0000FF1818181818181818181818181818182F
:105A1000181818FFFFFFFF00000000000000000042
:105A20000000000000000000020101000000000072
:105A300000000000000000000000000000FFFFFF69
:105A4000FF00000000000000000000000000000057
:105A50000000000101000000000000000000000044
:105A60000000000000000000000000000000000036
:105A700000000000000000000000000000FFFFFF29
:105A8000FF00000000000000000000000000000017
:105A90000000000000000000000000000000000006
:105AA00000000000000000000000000000000000F6
:105AB000000000000000000000000000001F1F0F99
:105AC0000F000000000000000000000000000000C7
:105AD00000000000000000000000000000000000C6
